{
  "_format": "hh-sol-artifact-1",
  "contractName": "HybridHiveCore",
  "sourceName": "contracts/HybridHiveCore.sol",
  "abi": [
    {
      "inputs": [],
      "name": "DENOMINATOR",
      "outputs": [
        {
          "internalType": "uint256",
          "name": "",
          "type": "uint256"
        }
      ],
      "stateMutability": "view",
      "type": "function"
    },
    {
      "inputs": [
        {
          "internalType": "uint256",
          "name": "_tokenId",
          "type": "uint256"
        },
        {
          "internalType": "address",
          "name": "_newAllowedHolder",
          "type": "address"
        }
      ],
      "name": "addAllowedHolder",
      "outputs": [],
      "stateMutability": "nonpayable",
      "type": "function"
    },
    {
      "inputs": [
        {
          "internalType": "enum IHybridHiveCore.EntityType",
          "name": "_entityType",
          "type": "uint8"
        },
        {
          "internalType": "uint256",
          "name": "_aggregatorId",
          "type": "uint256"
        },
        {
          "internalType": "uint256",
          "name": "_subEntity",
          "type": "uint256"
        }
      ],
      "name": "addSubEntity",
      "outputs": [],
      "stateMutability": "nonpayable",
      "type": "function"
    },
    {
      "inputs": [
        {
          "internalType": "uint256",
          "name": "_tokenId",
          "type": "uint256"
        },
        {
          "internalType": "address",
          "name": "_account",
          "type": "address"
        },
        {
          "internalType": "uint256",
          "name": "_amount",
          "type": "uint256"
        }
      ],
      "name": "burnToken",
      "outputs": [],
      "stateMutability": "nonpayable",
      "type": "function"
    },
    {
      "inputs": [
        {
          "internalType": "string",
          "name": "_aggregatorName",
          "type": "string"
        },
        {
          "internalType": "string",
          "name": "_aggregatorSymbol",
          "type": "string"
        },
        {
          "internalType": "string",
          "name": "_aggregatorURI",
          "type": "string"
        },
        {
          "internalType": "address",
          "name": "_aggregatorOperator",
          "type": "address"
        },
        {
          "internalType": "uint256",
          "name": "_parentAggregator",
          "type": "uint256"
        },
        {
          "internalType": "enum IHybridHiveCore.EntityType",
          "name": "_aggregatedEntityType",
          "type": "uint8"
        },
        {
          "internalType": "uint256[]",
          "name": "_aggregatedEntities",
          "type": "uint256[]"
        },
        {
          "internalType": "uint256[]",
          "name": "_aggregatedEntitiesWeights",
          "type": "uint256[]"
        }
      ],
      "name": "createAggregator",
      "outputs": [
        {
          "internalType": "uint256",
          "name": "",
          "type": "uint256"
        }
      ],
      "stateMutability": "nonpayable",
      "type": "function"
    },
    {
      "inputs": [
        {
          "internalType": "string",
          "name": "_tokenName",
          "type": "string"
        },
        {
          "internalType": "string",
          "name": "_tokenSymbol",
          "type": "string"
        },
        {
          "internalType": "string",
          "name": "_tokenURI",
          "type": "string"
        },
        {
          "internalType": "address",
          "name": "_tokenOperator",
          "type": "address"
        },
        {
          "internalType": "uint256",
          "name": "_parentAggregator",
          "type": "uint256"
        },
        {
          "internalType": "address[]",
          "name": "_tokenHolders",
          "type": "address[]"
        },
        {
          "internalType": "uint256[]",
          "name": "_holderBalances",
          "type": "uint256[]"
        }
      ],
      "name": "createToken",
      "outputs": [
        {
          "internalType": "uint256",
          "name": "",
          "type": "uint256"
        }
      ],
      "stateMutability": "nonpayable",
      "type": "function"
    },
    {
      "inputs": [
        {
          "internalType": "uint256",
          "name": "_aggregatorId",
          "type": "uint256"
        }
      ],
      "name": "getAggregatorParent",
      "outputs": [
        {
          "internalType": "uint256",
          "name": "",
          "type": "uint256"
        }
      ],
      "stateMutability": "view",
      "type": "function"
    },
    {
      "inputs": [
        {
          "internalType": "uint256",
          "name": "_aggregatorId",
          "type": "uint256"
        }
      ],
      "name": "getAggregatorSubEntities",
      "outputs": [
        {
          "internalType": "enum IHybridHiveCore.EntityType",
          "name": "",
          "type": "uint8"
        },
        {
          "internalType": "uint256[]",
          "name": "",
          "type": "uint256[]"
        }
      ],
      "stateMutability": "view",
      "type": "function"
    },
    {
      "inputs": [
        {
          "internalType": "uint256",
          "name": "_tokenId",
          "type": "uint256"
        }
      ],
      "name": "getAllowedTokenHolders",
      "outputs": [
        {
          "internalType": "address[]",
          "name": "",
          "type": "address[]"
        }
      ],
      "stateMutability": "view",
      "type": "function"
    },
    {
      "inputs": [
        {
          "internalType": "enum IHybridHiveCore.EntityType",
          "name": "_entityType",
          "type": "uint8"
        },
        {
          "internalType": "uint256",
          "name": "_entityId",
          "type": "uint256"
        }
      ],
      "name": "getEntityName",
      "outputs": [
        {
          "internalType": "string",
          "name": "",
          "type": "string"
        }
      ],
      "stateMutability": "view",
      "type": "function"
    },
    {
      "inputs": [
        {
          "internalType": "enum IHybridHiveCore.EntityType",
          "name": "_entityType",
          "type": "uint8"
        },
        {
          "internalType": "uint256",
          "name": "_entityId",
          "type": "uint256"
        }
      ],
      "name": "getEntitySymbol",
      "outputs": [
        {
          "internalType": "string",
          "name": "",
          "type": "string"
        }
      ],
      "stateMutability": "view",
      "type": "function"
    },
    {
      "inputs": [
        {
          "internalType": "enum IHybridHiveCore.EntityType",
          "name": "_entityType",
          "type": "uint8"
        },
        {
          "internalType": "uint256",
          "name": "_entityId",
          "type": "uint256"
        }
      ],
      "name": "getEntityURI",
      "outputs": [
        {
          "internalType": "string",
          "name": "",
          "type": "string"
        }
      ],
      "stateMutability": "view",
      "type": "function"
    },
    {
      "inputs": [
        {
          "internalType": "uint256",
          "name": "_networkRootAggregator",
          "type": "uint256"
        },
        {
          "internalType": "uint256",
          "name": "_aggregatorId",
          "type": "uint256"
        }
      ],
      "name": "getGlobalAggregatorShare",
      "outputs": [
        {
          "internalType": "uint256",
          "name": "",
          "type": "uint256"
        }
      ],
      "stateMutability": "view",
      "type": "function"
    },
    {
      "inputs": [
        {
          "internalType": "uint256",
          "name": "_networkRootAggregator",
          "type": "uint256"
        },
        {
          "internalType": "uint256",
          "name": "_tokenId",
          "type": "uint256"
        },
        {
          "internalType": "uint256",
          "name": "_tokensAmount",
          "type": "uint256"
        }
      ],
      "name": "getGlobalTokenShare",
      "outputs": [
        {
          "internalType": "uint256",
          "name": "",
          "type": "uint256"
        }
      ],
      "stateMutability": "view",
      "type": "function"
    },
    {
      "inputs": [
        {
          "internalType": "uint256",
          "name": "_aggregatorId",
          "type": "uint256"
        }
      ],
      "name": "getRootAggregator",
      "outputs": [
        {
          "internalType": "uint256",
          "name": "",
          "type": "uint256"
        }
      ],
      "stateMutability": "view",
      "type": "function"
    },
    {
      "inputs": [
        {
          "internalType": "uint256",
          "name": "_tokenId",
          "type": "uint256"
        },
        {
          "internalType": "address",
          "name": "_account",
          "type": "address"
        }
      ],
      "name": "getTokenBalance",
      "outputs": [
        {
          "internalType": "uint256",
          "name": "",
          "type": "uint256"
        }
      ],
      "stateMutability": "view",
      "type": "function"
    },
    {
      "inputs": [
        {
          "internalType": "uint256",
          "name": "_aggregatorId",
          "type": "uint256"
        }
      ],
      "name": "getTokenNumberInNetwork",
      "outputs": [
        {
          "internalType": "uint256",
          "name": "",
          "type": "uint256"
        }
      ],
      "stateMutability": "view",
      "type": "function"
    },
    {
      "inputs": [
        {
          "internalType": "uint256",
          "name": "_networkRootAggregator",
          "type": "uint256"
        },
        {
          "internalType": "uint256",
          "name": "_tokenId",
          "type": "uint256"
        },
        {
          "internalType": "uint256",
          "name": "_globalShare",
          "type": "uint256"
        }
      ],
      "name": "getTokensAmountFromShare",
      "outputs": [
        {
          "internalType": "uint256",
          "name": "",
          "type": "uint256"
        }
      ],
      "stateMutability": "view",
      "type": "function"
    },
    {
      "inputs": [
        {
          "internalType": "uint256",
          "name": "_aggregatorId",
          "type": "uint256"
        }
      ],
      "name": "getTokensInNetwork",
      "outputs": [
        {
          "internalType": "uint256[]",
          "name": "",
          "type": "uint256[]"
        }
      ],
      "stateMutability": "view",
      "type": "function"
    },
    {
      "inputs": [
        {
          "internalType": "uint256",
          "name": "_tokenFromId",
          "type": "uint256"
        },
        {
          "internalType": "uint256",
          "name": "_tokenToId",
          "type": "uint256"
        },
        {
          "internalType": "address",
          "name": "_sender",
          "type": "address"
        },
        {
          "internalType": "address",
          "name": "_recipient",
          "type": "address"
        },
        {
          "internalType": "uint256",
          "name": "_amount",
          "type": "uint256"
        }
      ],
      "name": "globalTransfer",
      "outputs": [],
      "stateMutability": "nonpayable",
      "type": "function"
    },
    {
      "inputs": [
        {
          "internalType": "uint256",
          "name": "_tokenId",
          "type": "uint256"
        },
        {
          "internalType": "address",
          "name": "_account",
          "type": "address"
        }
      ],
      "name": "isAllowedTokenHolder",
      "outputs": [
        {
          "internalType": "bool",
          "name": "",
          "type": "bool"
        }
      ],
      "stateMutability": "view",
      "type": "function"
    },
    {
      "inputs": [
        {
          "internalType": "uint256",
          "name": "_tokenId",
          "type": "uint256"
        },
        {
          "internalType": "address",
          "name": "_account",
          "type": "address"
        },
        {
          "internalType": "uint256",
          "name": "_amount",
          "type": "uint256"
        }
      ],
      "name": "mintToken",
      "outputs": [],
      "stateMutability": "nonpayable",
      "type": "function"
    },
    {
      "inputs": [
        {
          "internalType": "uint256",
          "name": "tokenId",
          "type": "uint256"
        },
        {
          "internalType": "address",
          "name": "recipient",
          "type": "address"
        },
        {
          "internalType": "uint256",
          "name": "amount",
          "type": "uint256"
        }
      ],
      "name": "transfer",
      "outputs": [],
      "stateMutability": "nonpayable",
      "type": "function"
    },
    {
      "inputs": [
        {
          "internalType": "enum IHybridHiveCore.EntityType",
          "name": "_entityType",
          "type": "uint8"
        },
        {
          "internalType": "uint256",
          "name": "_entityId",
          "type": "uint256"
        },
        {
          "internalType": "uint256",
          "name": "_parentAggregatorId",
          "type": "uint256"
        }
      ],
      "name": "updateParentAggregator",
      "outputs": [],
      "stateMutability": "nonpayable",
      "type": "function"
    }
  ],
  "bytecode": "0x608060405234801561001057600080fd5b5061404e806100206000396000f3fe608060405234801561001057600080fd5b50600436106101585760003560e01c8063918f8674116100c3578063d86bd4f71161007c578063d86bd4f714610448578063e4226f1114610478578063e8ab157614610494578063ef57e2d2146104c4578063f8548e36146104f4578063fd4906741461051057610158565b8063918f867414610361578063923e47d51461037f578063aebd4d4f1461039b578063c1a0da7c146103cb578063c2da4644146103fb578063d61bdd2d1461041757610158565b80636b26d6e8116101155780636b26d6e814610255578063718f5c26146102855780637811a5bf146102b557806387f84579146102d15780638ddb1cdd1461030157806390ae28ef1461033157610158565b806301e3e4cc1461015d5780630517f6871461018d57806319220ffb146101bd5780631b135f9a146101d9578063485c3804146102095780634ca52cba14610225575b600080fd5b610177600480360381019061017291906130c3565b610540565b60405161018491906130ff565b60405180910390f35b6101a760048036038101906101a291906130c3565b61057d565b6040516101b491906130ff565b60405180910390f35b6101d760048036038101906101d29190613178565b6105cc565b005b6101f360048036038101906101ee91906131cb565b610796565b60405161020091906130ff565b60405180910390f35b610223600480360381019061021e919061321e565b6107ff565b005b61023f600480360381019061023a91906130c3565b610f6a565b60405161024c91906130ff565b60405180910390f35b61026f600480360381019061026a91906130c3565b610f7c565b60405161027c9190613357565b60405180910390f35b61029f600480360381019061029a91906131cb565b610ff3565b6040516102ac91906130ff565b60405180910390f35b6102cf60048036038101906102ca9190613178565b6110fe565b005b6102eb60048036038101906102e691906130c3565b6112c8565b6040516102f89190613437565b60405180910390f35b61031b60048036038101906103169190613459565b6112ec565b60405161032891906130ff565b60405180910390f35b61034b60048036038101906103469190613499565b6113ac565b60405161035891906134f4565b60405180910390f35b6103696113db565b60405161037691906130ff565b60405180910390f35b61039960048036038101906103949190613534565b6113e3565b005b6103b560048036038101906103b09190613858565b61168a565b6040516103c291906130ff565b60405180910390f35b6103e560048036038101906103e09190613986565b611857565b6040516103f291906130ff565b60405180910390f35b61041560048036038101906104109190613499565b611ae5565b005b610431600480360381019061042c91906130c3565b611cad565b60405161043f929190613b3f565b60405180910390f35b610462600480360381019061045d9190613b6f565b611d16565b60405161046f9190613c37565b60405180910390f35b610492600480360381019061048d9190613534565b611ec4565b005b6104ae60048036038101906104a99190613b6f565b6120da565b6040516104bb9190613c37565b60405180910390f35b6104de60048036038101906104d99190613499565b612288565b6040516104eb91906130ff565b60405180910390f35b61050e60048036038101906105099190613178565b61230c565b005b61052a60048036038101906105259190613b6f565b6124e2565b6040516105379190613c37565b60405180910390f35b600061055682600561269090919063ffffffff16565b61055f57600080fd5b60076000838152602001908152602001600020600401549050919050565b600080600760008481526020019081526020016000206004015414156105a5578190506105c7565b6105c4600760008481526020019081526020016000206004015461057d565b90505b919050565b600183600160028111156105e3576105e2613ac8565b5b8260028111156105f6576105f5613ac8565b5b141561068c5761061081600061269090919063ffffffff16565b61061957600080fd5b3373ffffffffffffffffffffffffffffffffffffffff166002600083815260200190815260200160002060030160009054906101000a900473ffffffffffffffffffffffffffffffffffffffff1673ffffffffffffffffffffffffffffffffffffffff161461068757600080fd5b610784565b60028081111561069f5761069e613ac8565b5b8260028111156106b2576106b1613ac8565b5b1415610748576106cc81600561269090919063ffffffff16565b6106d557600080fd5b3373ffffffffffffffffffffffffffffffffffffffff166007600083815260200190815260200160002060030160009054906101000a900473ffffffffffffffffffffffffffffffffffffffff1673ffffffffffffffffffffffffffffffffffffffff161461074357600080fd5b610783565b6040517f08c379a000000000000000000000000000000000000000000000000000000000815260040161077a90613ca5565b60405180910390fd5b5b61078f8585856126aa565b5050505050565b6000806107ba85856002600088815260200190815260200160002060050154610ff3565b90508281116107c857600080fd5b808360026000878152602001908152602001600020600501546107eb9190613cf4565b6107f59190613d7d565b9150509392505050565b6000610820600260008881526020019081526020016000206004015461057d565b9050600061082f828885610ff3565b9050600061083f83888785612749565b90506000600190506000600260008b815260200190815260200160002060040154905060005b600082146108a75760076000838152602001908152602001600020600401549150828061089190613dae565b935050808061089f90613dae565b915050610865565b50600060019050600260008b815260200190815260200160002060040154915060005b6000831461090c576007600084815260200190815260200160002060040154925081806108f690613dae565b925050808061090490613dae565b9150506108ca565b5060008367ffffffffffffffff811115610929576109286135a2565b5b6040519080825280602002602001820160405280156109575781602001602082028036833780820191505090505b50905060008267ffffffffffffffff811115610976576109756135a2565b5b6040519080825280602002602001820160405280156109a45781602001602082028036833780820191505090505b509050600260008e815260200190815260200160002060040154935060005b60008514610a2f57848360028386516109dc9190613df7565b6109e69190613df7565b815181106109f7576109f6613e2b565b5b602002602001018181525050600760008681526020019081526020016000206004015494508080610a2790613dae565b9150506109c3565b508c8260018451610a409190613df7565b81518110610a5157610a50613e2b565b5b602002602001018181525050600260008d815260200190815260200160002060040154935060005b60008514610ae55784826002838551610a929190613df7565b610a9c9190613df7565b81518110610aad57610aac613e2b565b5b602002602001018181525050600760008681526020019081526020016000206004015494508080610add90613dae565b915050610a79565b508b8160018351610af69190613df7565b81518110610b0757610b06613e2b565b5b6020026020010181815250506000600960008a8152602001908152602001600020600084600181518110610b3e57610b3d613e2b565b5b602002602001015181526020019081526020016000205490506000600960008b8152602001908152602001600020600084600181518110610b8257610b81613e2b565b5b6020026020010151815260200190815260200160002054905088600960008c8152602001908152602001600020600086600181518110610bc557610bc4613e2b565b5b602002602001015181526020019081526020016000206000828254610bea9190613df7565b9250508190555088600960008c8152602001908152602001600020600085600181518110610c1b57610c1a613e2b565b5b602002602001015181526020019081526020016000206000828254610c409190613e5a565b925050819055506000600190505b60018551610c5c9190613df7565b811015610dc4576000838b60096000898681518110610c7e57610c7d613e2b565b5b60200260200101518152602001908152602001600020600089600187610ca49190613e5a565b81518110610cb557610cb4613e2b565b5b6020026020010151815260200190815260200160002054610cd69190613cf4565b610ce09190613d7d565b90506305f5e10060096000888581518110610cfe57610cfd613e2b565b5b60200260200101518152602001908152602001600020600088600186610d249190613e5a565b81518110610d3557610d34613e2b565b5b602002602001015181526020019081526020016000205485610d579190613cf4565b610d619190613d7d565b9350610db0868381518110610d7957610d78613e2b565b5b602002602001015187600185610d8f9190613e5a565b81518110610da057610d9f613e2b565b5b6020026020010151836000612790565b508080610dbc90613dae565b915050610c4e565b506000600190505b60018451610dda9190613df7565b811015610f42576000828b60096000888681518110610dfc57610dfb613e2b565b5b60200260200101518152602001908152602001600020600088600187610e229190613e5a565b81518110610e3357610e32613e2b565b5b6020026020010151815260200190815260200160002054610e549190613cf4565b610e5e9190613d7d565b90506305f5e10060096000878581518110610e7c57610e7b613e2b565b5b60200260200101518152602001908152602001600020600087600186610ea29190613e5a565b81518110610eb357610eb2613e2b565b5b602002602001015181526020019081526020016000205484610ed59190613cf4565b610edf9190613d7d565b9250610f2e858381518110610ef757610ef6613e2b565b5b602002602001015186600185610f0d9190613e5a565b81518110610f1e57610f1d613e2b565b5b6020026020010151836001612790565b508080610f3a90613dae565b915050610dcc565b50610f4e8e8d8a612a81565b610f598f8e8d6126aa565b505050505050505050505050505050565b6000610f7582612b33565b9050919050565b60606000610f8983612b33565b905060008167ffffffffffffffff811115610fa757610fa66135a2565b5b604051908082528060200260200182016040528015610fd55781602001602082028036833780820191505090505b509050610fe484826000612c25565b50809150508092505050919050565b6000806002600085815260200190815260200160002060050154836305f5e10061101d9190613cf4565b6110279190613d7d565b905060008490506000600260008781526020019081526020016000206004015490505b8681146110b3576305f5e10060096000838152602001908152602001600020600084815260200190815260200160002054846110869190613cf4565b6110909190613d7d565b92508091506007600083815260200190815260200160002060040154905061104a565b6305f5e10060096000898152602001908152602001600020600084815260200190815260200160002054846110e89190613cf4565b6110f29190613d7d565b93505050509392505050565b6001836001600281111561111557611114613ac8565b5b82600281111561112857611127613ac8565b5b14156111be5761114281600061269090919063ffffffff16565b61114b57600080fd5b3373ffffffffffffffffffffffffffffffffffffffff166002600083815260200190815260200160002060030160009054906101000a900473ffffffffffffffffffffffffffffffffffffffff1673ffffffffffffffffffffffffffffffffffffffff16146111b957600080fd5b6112b6565b6002808111156111d1576111d0613ac8565b5b8260028111156111e4576111e3613ac8565b5b141561127a576111fe81600561269090919063ffffffff16565b61120757600080fd5b3373ffffffffffffffffffffffffffffffffffffffff166007600083815260200190815260200160002060030160009054906101000a900473ffffffffffffffffffffffffffffffffffffffff1673ffffffffffffffffffffffffffffffffffffffff161461127557600080fd5b6112b5565b6040517f08c379a00000000000000000000000000000000000000000000000000000000081526004016112ac90613ca5565b60405180910390fd5b5b6112c1858585612a81565b5050505050565b60606112e560046000848152602001908152602001600020612d8e565b9050919050565b60008082905060006007600085815260200190815260200160002060040154905060006009600083815260200190815260200160002060008481526020019081526020016000205490505b8582146113a057819250600760008481526020019081526020016000206004015491506305f5e100600960008481526020019081526020016000206000858152602001908152602001600020548261138f9190613cf4565b6113999190613d7d565b9050611337565b80935050505092915050565b60006113d38260046000868152602001908152602001600020612daf90919063ffffffff16565b905092915050565b6305f5e10081565b8282600160028111156113f9576113f8613ac8565b5b82600281111561140c5761140b613ac8565b5b14156114a25761142681600061269090919063ffffffff16565b61142f57600080fd5b3373ffffffffffffffffffffffffffffffffffffffff166002600083815260200190815260200160002060030160009054906101000a900473ffffffffffffffffffffffffffffffffffffffff1673ffffffffffffffffffffffffffffffffffffffff161461149d57600080fd5b61159a565b6002808111156114b5576114b4613ac8565b5b8260028111156114c8576114c7613ac8565b5b141561155e576114e281600561269090919063ffffffff16565b6114eb57600080fd5b3373ffffffffffffffffffffffffffffffffffffffff166007600083815260200190815260200160002060030160009054906101000a900473ffffffffffffffffffffffffffffffffffffffff1673ffffffffffffffffffffffffffffffffffffffff161461155957600080fd5b611599565b6040517f08c379a000000000000000000000000000000000000000000000000000000000815260040161159090613ca5565b60405180910390fd5b5b8460028111156115ad576115ac613ac8565b5b6007600085815260200190815260200160002060050160009054906101000a900460ff1660028111156115e3576115e2613ac8565b5b146115ed57600080fd5b600280811115611600576115ff613ac8565b5b85600281111561161357611612613ac8565b5b141561163957826007600086815260200190815260200160002060040181905550611683565b6001600281111561164d5761164c613ac8565b5b8560028111156116605761165f613ac8565b5b1415611682578260026000868152602001908152602001600020600401819055505b5b5050505050565b60008073ffffffffffffffffffffffffffffffffffffffff168573ffffffffffffffffffffffffffffffffffffffff1614156116c557600080fd5b600060016116d36000612ddf565b6116dd9190613e5a565b90506116f381600061269090919063ffffffff16565b1561170157611700613eb0565b5b611715816000612df490919063ffffffff16565b50600060026000838152602001908152602001600020905089816000019080519060200190611745929190612fd6565b508881600101908051906020019061175e929190612fd6565b5087816002019080519060200190611777929190612fd6565b50868160030160006101000a81548173ffffffffffffffffffffffffffffffffffffffff021916908373ffffffffffffffffffffffffffffffffffffffff16021790555085816004018190555060005b8551811015611846576117f4838783815181106117e7576117e6613e2b565b5b6020026020010151612e0e565b6118338387838151811061180b5761180a613e2b565b5b602002602001015187848151811061182657611825613e2b565b5b6020026020010151612a81565b808061183e90613dae565b9150506117c7565b508192505050979650505050505050565b60008073ffffffffffffffffffffffffffffffffffffffff168673ffffffffffffffffffffffffffffffffffffffff16141561189257600080fd5b600060016118a06005612ddf565b6118aa9190613e5a565b90506118c081600561269090919063ffffffff16565b156118ce576118cd613eb0565b5b6118e2816005612df490919063ffffffff16565b5060006007600083815260200190815260200160002090508a816000019080519060200190611912929190612fd6565b508981600101908051906020019061192b929190612fd6565b5088816002019080519060200190611944929190612fd6565b50878160030160006101000a81548173ffffffffffffffffffffffffffffffffffffffff021916908373ffffffffffffffffffffffffffffffffffffffff160217905550868160040181905550858160050160006101000a81548160ff021916908360028111156119b8576119b7613ac8565b5b021790555060005b8551811015611a1c57611a088682815181106119df576119de613e2b565b5b602002602001015160086000868152602001908152602001600020612df490919063ffffffff16565b508080611a1490613dae565b9150506119c0565b506000805b8551811015611ac257858181518110611a3d57611a3c613e2b565b5b602002602001015182611a509190613e5a565b9150858181518110611a6557611a64613e2b565b5b6020026020010151600960008681526020019081526020016000206000898481518110611a9557611a94613e2b565b5b60200260200101518152602001908152602001600020819055508080611aba90613dae565b915050611a21565b506305f5e1008114611ad357600080fd5b82935050505098975050505050505050565b60018260016002811115611afc57611afb613ac8565b5b826002811115611b0f57611b0e613ac8565b5b1415611ba557611b2981600061269090919063ffffffff16565b611b3257600080fd5b3373ffffffffffffffffffffffffffffffffffffffff166002600083815260200190815260200160002060030160009054906101000a900473ffffffffffffffffffffffffffffffffffffffff1673ffffffffffffffffffffffffffffffffffffffff1614611ba057600080fd5b611c9d565b600280811115611bb857611bb7613ac8565b5b826002811115611bcb57611bca613ac8565b5b1415611c6157611be581600561269090919063ffffffff16565b611bee57600080fd5b3373ffffffffffffffffffffffffffffffffffffffff166007600083815260200190815260200160002060030160009054906101000a900473ffffffffffffffffffffffffffffffffffffffff1673ffffffffffffffffffffffffffffffffffffffff1614611c5c57600080fd5b611c9c565b6040517f08c379a0000000000000000000000000000000000000000000000000000000008152600401611c9390613ca5565b60405180910390fd5b5b611ca78484612e0e565b50505050565b60006060611cc583600561269090919063ffffffff16565b611cce57600080fd5b6007600084815260200190815260200160002060050160009054906101000a900460ff16611d0d60086000868152602001908152602001600020612e40565b91509150915091565b606060016002811115611d2c57611d2b613ac8565b5b836002811115611d3f57611d3e613ac8565b5b1415611deb57600260008381526020019081526020016000206002018054611d6690613f0e565b80601f0160208091040260200160405190810160405280929190818152602001828054611d9290613f0e565b8015611ddf5780601f10611db457610100808354040283529160200191611ddf565b820191906000526020600020905b815481529060010190602001808311611dc257829003601f168201915b50505050509050611ebe565b600280811115611dfe57611dfd613ac8565b5b836002811115611e1157611e10613ac8565b5b1415611ebd57600760008381526020019081526020016000206002018054611e3890613f0e565b80601f0160208091040260200160405190810160405280929190818152602001828054611e6490613f0e565b8015611eb15780601f10611e8657610100808354040283529160200191611eb1565b820191906000526020600020905b815481529060010190602001808311611e9457829003601f168201915b50505050509050611ebe565b5b92915050565b828260016002811115611eda57611ed9613ac8565b5b826002811115611eed57611eec613ac8565b5b1415611f8357611f0781600061269090919063ffffffff16565b611f1057600080fd5b3373ffffffffffffffffffffffffffffffffffffffff166002600083815260200190815260200160002060030160009054906101000a900473ffffffffffffffffffffffffffffffffffffffff1673ffffffffffffffffffffffffffffffffffffffff1614611f7e57600080fd5b61207b565b600280811115611f9657611f95613ac8565b5b826002811115611fa957611fa8613ac8565b5b141561203f57611fc381600561269090919063ffffffff16565b611fcc57600080fd5b3373ffffffffffffffffffffffffffffffffffffffff166007600083815260200190815260200160002060030160009054906101000a900473ffffffffffffffffffffffffffffffffffffffff1673ffffffffffffffffffffffffffffffffffffffff161461203a57600080fd5b61207a565b6040517f08c379a000000000000000000000000000000000000000000000000000000000815260040161207190613ca5565b60405180910390fd5b5b6120a08360086000878152602001908152602001600020612df490919063ffffffff16565b6120a957600080fd5b6000600960008681526020019081526020016000206000858152602001908152602001600020819055505050505050565b6060600160028111156120f0576120ef613ac8565b5b83600281111561210357612102613ac8565b5b14156121af5760026000838152602001908152602001600020600001805461212a90613f0e565b80601f016020809104026020016040519081016040528092919081815260200182805461215690613f0e565b80156121a35780601f10612178576101008083540402835291602001916121a3565b820191906000526020600020905b81548152906001019060200180831161218657829003601f168201915b50505050509050612282565b6002808111156121c2576121c1613ac8565b5b8360028111156121d5576121d4613ac8565b5b1415612281576007600083815260200190815260200160002060000180546121fc90613f0e565b80601f016020809104026020016040519081016040528092919081815260200182805461222890613f0e565b80156122755780601f1061224a57610100808354040283529160200191612275565b820191906000526020600020905b81548152906001019060200180831161225857829003601f168201915b50505050509050612282565b5b92915050565b600080831161229657600080fd5b6122aa83600061269090919063ffffffff16565b6122b357600080fd5b6003600084815260200190815260200160002060008373ffffffffffffffffffffffffffffffffffffffff1673ffffffffffffffffffffffffffffffffffffffff16815260200190815260200160002054905092915050565b600073ffffffffffffffffffffffffffffffffffffffff168273ffffffffffffffffffffffffffffffffffffffff16141561237c576040517f08c379a000000000000000000000000000000000000000000000000000000000815260040161237390613f8c565b60405180910390fd5b806003600085815260200190815260200160002060003373ffffffffffffffffffffffffffffffffffffffff1673ffffffffffffffffffffffffffffffffffffffff16815260200190815260200160002054101561240f576040517f08c379a000000000000000000000000000000000000000000000000000000000815260040161240690613ff8565b60405180910390fd5b806003600085815260200190815260200160002060003373ffffffffffffffffffffffffffffffffffffffff1673ffffffffffffffffffffffffffffffffffffffff168152602001908152602001600020600082825461246f9190613df7565b92505081905550806003600085815260200190815260200160002060008473ffffffffffffffffffffffffffffffffffffffff1673ffffffffffffffffffffffffffffffffffffffff16815260200190815260200160002060008282546124d69190613e5a565b92505081905550505050565b6060600160028111156124f8576124f7613ac8565b5b83600281111561250b5761250a613ac8565b5b14156125b75760026000838152602001908152602001600020600101805461253290613f0e565b80601f016020809104026020016040519081016040528092919081815260200182805461255e90613f0e565b80156125ab5780601f10612580576101008083540402835291602001916125ab565b820191906000526020600020905b81548152906001019060200180831161258e57829003601f168201915b5050505050905061268a565b6002808111156125ca576125c9613ac8565b5b8360028111156125dd576125dc613ac8565b5b14156126895760076000838152602001908152602001600020600101805461260490613f0e565b80601f016020809104026020016040519081016040528092919081815260200182805461263090613f0e565b801561267d5780601f106126525761010080835404028352916020019161267d565b820191906000526020600020905b81548152906001019060200180831161266057829003601f168201915b5050505050905061268a565b5b92915050565b60006126a2836000018360001b612e61565b905092915050565b6000600260008581526020019081526020016000209050816003600086815260200190815260200160002060008573ffffffffffffffffffffffffffffffffffffffff1673ffffffffffffffffffffffffffffffffffffffff16815260200190815260200160002060008282546127219190613df7565b925050819055508181600501600082825461273c9190613df7565b9250508190555050505050565b6000806127568585612288565b90506000612765878784610ff3565b905060008183866127769190613cf4565b6127809190613d7d565b9050809350505050949350505050565b80156127d6578160096000868152602001908152602001600020600085815260200190815260200160002060008282546127ca9190613e5a565b92505081905550612812565b81600960008681526020019081526020016000206000858152602001908152602001600020600082825461280a9190613df7565b925050819055505b6000805b61283160086000888152602001908152602001600020612ddf565b8110156128a15760096000878152602001908152602001600020600061287283600860008b8152602001908152602001600020612e8490919063ffffffff16565b8152602001908152602001600020548261288c9190613e5a565b9150808061289990613dae565b915050612816565b506000816305f5e100806128b59190613cf4565b6128bf9190613d7d565b90506000805b6128e0600860008a8152602001908152602001600020612ddf565b8110156129bd5760006305f5e100600960008b8152602001908152602001600020600061292885600860008f8152602001908152602001600020612e8490919063ffffffff16565b815260200190815260200160002054856129429190613cf4565b61294c9190613d7d565b9050808361295a9190613e5a565b925080600960008b8152602001908152602001600020600061299785600860008f8152602001908152602001600020612e8490919063ffffffff16565b8152602001908152602001600020819055505080806129b590613dae565b9150506128c5565b506305f5e100811015612a63576000816305f5e1006129dc9190613df7565b905080600960008a81526020019081526020016000206000612a1a6000600860008e8152602001908152602001600020612e8490919063ffffffff16565b81526020019081526020016000206000828254612a379190613e5a565b925050819055506305f5e1008183612a4f9190613e5a565b14612a5d57612a5c613eb0565b5b50612a78565b6305f5e1008114612a7757612a76613eb0565b5b5b50505050505050565b6000600260008581526020019081526020016000209050612aa284846113ac565b612aab57600080fd5b816003600086815260200190815260200160002060008573ffffffffffffffffffffffffffffffffffffffff1673ffffffffffffffffffffffffffffffffffffffff1681526020019081526020016000206000828254612b0b9190613e5a565b9250508190555081816005016000828254612b269190613e5a565b9250508190555050505050565b600060016002811115612b4957612b48613ac8565b5b6007600084815260200190815260200160002060050160009054906101000a900460ff166002811115612b7f57612b7e613ac8565b5b1415612ba757612ba060086000848152602001908152602001600020612ddf565b9050612c20565b6000805b612bc660086000868152602001908152602001600020612ddf565b811015612c1a57612bfa612bf58260086000888152602001908152602001600020612e8490919063ffffffff16565b612b33565b82612c059190613e5a565b91508080612c1290613dae565b915050612bab565b50809150505b919050565b6060600060016002811115612c3d57612c3c613ac8565b5b6007600087815260200190815260200160002060050160009054906101000a900460ff166002811115612c7357612c72613ac8565b5b1415612d0f5760005b612c9760086000888152602001908152602001600020612ddf565b811015612d0357612cc38160086000898152602001908152602001600020612e8490919063ffffffff16565b858581518110612cd657612cd5613e2b565b5b6020026020010181815250508380612ced90613dae565b9450508080612cfb90613dae565b915050612c7c565b50838391509150612d86565b60005b612d2d60086000888152602001908152602001600020612ddf565b811015612d7e57612d63612d5c82600860008a8152602001908152602001600020612e8490919063ffffffff16565b8686612c25565b80955081965050508080612d7690613dae565b915050612d12565b508383915091505b935093915050565b60606000612d9e83600001612e9e565b905060608190508092505050919050565b6000612dd7836000018373ffffffffffffffffffffffffffffffffffffffff1660001b612e61565b905092915050565b6000612ded82600001612efa565b9050919050565b6000612e06836000018360001b612f0b565b905092915050565b612e338160046000858152602001908152602001600020612f7b90919063ffffffff16565b612e3c57600080fd5b5050565b60606000612e5083600001612e9e565b905060608190508092505050919050565b600080836001016000848152602001908152602001600020541415905092915050565b6000612e938360000183612fab565b60001c905092915050565b606081600001805480602002602001604051908101604052809291908181526020018280548015612eee57602002820191906000526020600020905b815481526020019060010190808311612eda575b50505050509050919050565b600081600001805490509050919050565b6000612f178383612e61565b612f70578260000182908060018154018082558091505060019003906000526020600020016000909190919091505582600001805490508360010160008481526020019081526020016000208190555060019050612f75565b600090505b92915050565b6000612fa3836000018373ffffffffffffffffffffffffffffffffffffffff1660001b612f0b565b905092915050565b6000826000018281548110612fc357612fc2613e2b565b5b9060005260206000200154905092915050565b828054612fe290613f0e565b90600052602060002090601f016020900481019282613004576000855561304b565b82601f1061301d57805160ff191683800117855561304b565b8280016001018555821561304b579182015b8281111561304a57825182559160200191906001019061302f565b5b509050613058919061305c565b5090565b5b8082111561307557600081600090555060010161305d565b5090565b6000604051905090565b600080fd5b600080fd5b6000819050919050565b6130a08161308d565b81146130ab57600080fd5b50565b6000813590506130bd81613097565b92915050565b6000602082840312156130d9576130d8613083565b5b60006130e7848285016130ae565b91505092915050565b6130f98161308d565b82525050565b600060208201905061311460008301846130f0565b92915050565b600073ffffffffffffffffffffffffffffffffffffffff82169050919050565b60006131458261311a565b9050919050565b6131558161313a565b811461316057600080fd5b50565b6000813590506131728161314c565b92915050565b60008060006060848603121561319157613190613083565b5b600061319f868287016130ae565b93505060206131b086828701613163565b92505060406131c1868287016130ae565b9150509250925092565b6000806000606084860312156131e4576131e3613083565b5b60006131f2868287016130ae565b9350506020613203868287016130ae565b9250506040613214868287016130ae565b9150509250925092565b600080600080600060a0868803121561323a57613239613083565b5b6000613248888289016130ae565b9550506020613259888289016130ae565b945050604061326a88828901613163565b935050606061327b88828901613163565b925050608061328c888289016130ae565b9150509295509295909350565b600081519050919050565b600082825260208201905092915050565b6000819050602082019050919050565b6132ce8161308d565b82525050565b60006132e083836132c5565b60208301905092915050565b6000602082019050919050565b600061330482613299565b61330e81856132a4565b9350613319836132b5565b8060005b8381101561334a57815161333188826132d4565b975061333c836132ec565b92505060018101905061331d565b5085935050505092915050565b6000602082019050818103600083015261337181846132f9565b905092915050565b600081519050919050565b600082825260208201905092915050565b6000819050602082019050919050565b6133ae8161313a565b82525050565b60006133c083836133a5565b60208301905092915050565b6000602082019050919050565b60006133e482613379565b6133ee8185613384565b93506133f983613395565b8060005b8381101561342a57815161341188826133b4565b975061341c836133cc565b9250506001810190506133fd565b5085935050505092915050565b6000602082019050818103600083015261345181846133d9565b905092915050565b600080604083850312156134705761346f613083565b5b600061347e858286016130ae565b925050602061348f858286016130ae565b9150509250929050565b600080604083850312156134b0576134af613083565b5b60006134be858286016130ae565b92505060206134cf85828601613163565b9150509250929050565b60008115159050919050565b6134ee816134d9565b82525050565b600060208201905061350960008301846134e5565b92915050565b6003811061351c57600080fd5b50565b60008135905061352e8161350f565b92915050565b60008060006060848603121561354d5761354c613083565b5b600061355b8682870161351f565b935050602061356c868287016130ae565b925050604061357d868287016130ae565b9150509250925092565b600080fd5b600080fd5b6000601f19601f8301169050919050565b7f4e487b7100000000000000000000000000000000000000000000000000000000600052604160045260246000fd5b6135da82613591565b810181811067ffffffffffffffff821117156135f9576135f86135a2565b5b80604052505050565b600061360c613079565b905061361882826135d1565b919050565b600067ffffffffffffffff821115613638576136376135a2565b5b61364182613591565b9050602081019050919050565b82818337600083830152505050565b600061367061366b8461361d565b613602565b90508281526020810184848401111561368c5761368b61358c565b5b61369784828561364e565b509392505050565b600082601f8301126136b4576136b3613587565b5b81356136c484826020860161365d565b91505092915050565b600067ffffffffffffffff8211156136e8576136e76135a2565b5b602082029050602081019050919050565b600080fd5b600061371161370c846136cd565b613602565b90508083825260208201905060208402830185811115613734576137336136f9565b5b835b8181101561375d57806137498882613163565b845260208401935050602081019050613736565b5050509392505050565b600082601f83011261377c5761377b613587565b5b813561378c8482602086016136fe565b91505092915050565b600067ffffffffffffffff8211156137b0576137af6135a2565b5b602082029050602081019050919050565b60006137d46137cf84613795565b613602565b905080838252602082019050602084028301858111156137f7576137f66136f9565b5b835b81811015613820578061380c88826130ae565b8452602084019350506020810190506137f9565b5050509392505050565b600082601f83011261383f5761383e613587565b5b813561384f8482602086016137c1565b91505092915050565b600080600080600080600060e0888a03121561387757613876613083565b5b600088013567ffffffffffffffff81111561389557613894613088565b5b6138a18a828b0161369f565b975050602088013567ffffffffffffffff8111156138c2576138c1613088565b5b6138ce8a828b0161369f565b965050604088013567ffffffffffffffff8111156138ef576138ee613088565b5b6138fb8a828b0161369f565b955050606061390c8a828b01613163565b945050608061391d8a828b016130ae565b93505060a088013567ffffffffffffffff81111561393e5761393d613088565b5b61394a8a828b01613767565b92505060c088013567ffffffffffffffff81111561396b5761396a613088565b5b6139778a828b0161382a565b91505092959891949750929550565b600080600080600080600080610100898b0312156139a7576139a6613083565b5b600089013567ffffffffffffffff8111156139c5576139c4613088565b5b6139d18b828c0161369f565b985050602089013567ffffffffffffffff8111156139f2576139f1613088565b5b6139fe8b828c0161369f565b975050604089013567ffffffffffffffff811115613a1f57613a1e613088565b5b613a2b8b828c0161369f565b9650506060613a3c8b828c01613163565b9550506080613a4d8b828c016130ae565b94505060a0613a5e8b828c0161351f565b93505060c089013567ffffffffffffffff811115613a7f57613a7e613088565b5b613a8b8b828c0161382a565b92505060e089013567ffffffffffffffff811115613aac57613aab613088565b5b613ab88b828c0161382a565b9150509295985092959890939650565b7f4e487b7100000000000000000000000000000000000000000000000000000000600052602160045260246000fd5b60038110613b0857613b07613ac8565b5b50565b6000819050613b1982613af7565b919050565b6000613b2982613b0b565b9050919050565b613b3981613b1e565b82525050565b6000604082019050613b546000830185613b30565b8181036020830152613b6681846132f9565b90509392505050565b60008060408385031215613b8657613b85613083565b5b6000613b948582860161351f565b9250506020613ba5858286016130ae565b9150509250929050565b600081519050919050565b600082825260208201905092915050565b60005b83811015613be9578082015181840152602081019050613bce565b83811115613bf8576000848401525b50505050565b6000613c0982613baf565b613c138185613bba565b9350613c23818560208601613bcb565b613c2c81613591565b840191505092915050565b60006020820190508181036000830152613c518184613bfe565b905092915050565b7f556e6b6e6f776e20656e74697479207479706500000000000000000000000000600082015250565b6000613c8f601383613bba565b9150613c9a82613c59565b602082019050919050565b60006020820190508181036000830152613cbe81613c82565b9050919050565b7f4e487b7100000000000000000000000000000000000000000000000000000000600052601160045260246000fd5b6000613cff8261308d565b9150613d0a8361308d565b9250817fffffffffffffffffffffffffffffffffffffffffffffffffffffffffffffffff0483118215151615613d4357613d42613cc5565b5b828202905092915050565b7f4e487b7100000000000000000000000000000000000000000000000000000000600052601260045260246000fd5b6000613d888261308d565b9150613d938361308d565b925082613da357613da2613d4e565b5b828204905092915050565b6000613db98261308d565b91507fffffffffffffffffffffffffffffffffffffffffffffffffffffffffffffffff821415613dec57613deb613cc5565b5b600182019050919050565b6000613e028261308d565b9150613e0d8361308d565b925082821015613e2057613e1f613cc5565b5b828203905092915050565b7f4e487b7100000000000000000000000000000000000000000000000000000000600052603260045260246000fd5b6000613e658261308d565b9150613e708361308d565b9250827fffffffffffffffffffffffffffffffffffffffffffffffffffffffffffffffff03821115613ea557613ea4613cc5565b5b828201905092915050565b7f4e487b7100000000000000000000000000000000000000000000000000000000600052600160045260246000fd5b7f4e487b7100000000000000000000000000000000000000000000000000000000600052602260045260246000fd5b60006002820490506001821680613f2657607f821691505b60208210811415613f3a57613f39613edf565b5b50919050565b7f5472616e7366657220746f207a65726f20616464726573730000000000000000600082015250565b6000613f76601883613bba565b9150613f8182613f40565b602082019050919050565b60006020820190508181036000830152613fa581613f69565b9050919050565b7f496e73756666696369656e742062616c616e6365000000000000000000000000600082015250565b6000613fe2601483613bba565b9150613fed82613fac565b602082019050919050565b6000602082019050818103600083015261401181613fd5565b905091905056fea2646970667358221220bc5fabff1d01680fca340a7e5803a45e6c008e08408c7f3779e01b68de624d6c64736f6c63430008090033",
  "linkReferences": {},
  "deployedLinkReferences": {}
}